{
  "_format": "hh-sol-artifact-1",
  "contractName": "AddrsSeq",
  "sourceName": "src/AddrsSeq.sol",
  "abi": [
    {
      "inputs": [],
      "stateMutability": "nonpayable",
      "type": "constructor"
    },
    {
      "anonymous": false,
      "inputs": [
        {
          "indexed": false,
          "internalType": "uint64",
          "name": "n",
          "type": "uint64"
        },
        {
          "indexed": false,
          "internalType": "uint64",
          "name": "i",
          "type": "uint64"
        },
        {
          "indexed": false,
          "internalType": "address[]",
          "name": "newAddrs",
          "type": "address[]"
        }
      ],
      "name": "Added",
      "type": "event"
    },
    {
      "anonymous": false,
      "inputs": [
        {
          "indexed": false,
          "internalType": "uint64",
          "name": "n",
          "type": "uint64"
        }
      ],
      "name": "Appended",
      "type": "event"
    },
    {
      "anonymous": false,
      "inputs": [
        {
          "indexed": true,
          "internalType": "address",
          "name": "previousOwner",
          "type": "address"
        },
        {
          "indexed": true,
          "internalType": "address",
          "name": "newOwner",
          "type": "address"
        }
      ],
      "name": "OwnershipTransferred",
      "type": "event"
    },
    {
      "inputs": [
        {
          "internalType": "address[]",
          "name": "newAddrs",
          "type": "address[]"
        }
      ],
      "name": "add",
      "outputs": [],
      "stateMutability": "nonpayable",
      "type": "function"
    },
    {
      "inputs": [],
      "name": "append",
      "outputs": [],
      "stateMutability": "nonpayable",
      "type": "function"
    },
    {
      "inputs": [
        {
          "internalType": "uint64",
          "name": "n",
          "type": "uint64"
        },
        {
          "internalType": "uint64",
          "name": "i",
          "type": "uint64"
        }
      ],
      "name": "at",
      "outputs": [
        {
          "internalType": "address",
          "name": "",
          "type": "address"
        }
      ],
      "stateMutability": "view",
      "type": "function"
    },
    {
      "inputs": [],
      "name": "count",
      "outputs": [
        {
          "internalType": "uint64",
          "name": "",
          "type": "uint64"
        }
      ],
      "stateMutability": "view",
      "type": "function"
    },
    {
      "inputs": [
        {
          "internalType": "uint64",
          "name": "n",
          "type": "uint64"
        }
      ],
      "name": "countNth",
      "outputs": [
        {
          "internalType": "uint64",
          "name": "",
          "type": "uint64"
        }
      ],
      "stateMutability": "view",
      "type": "function"
    },
    {
      "inputs": [],
      "name": "owner",
      "outputs": [
        {
          "internalType": "address",
          "name": "",
          "type": "address"
        }
      ],
      "stateMutability": "view",
      "type": "function"
    },
    {
      "inputs": [],
      "name": "renounceOwnership",
      "outputs": [],
      "stateMutability": "nonpayable",
      "type": "function"
    },
    {
      "inputs": [
        {
          "internalType": "address",
          "name": "newOwner",
          "type": "address"
        }
      ],
      "name": "transferOwnership",
      "outputs": [],
      "stateMutability": "nonpayable",
      "type": "function"
    }
  ],
  "bytecode": "0x60806040523480156200001157600080fd5b5062000032620000266200004860201b60201c565b6200005060201b60201c565b620000426200011460201b60201c565b62000297565b600033905090565b60008060009054906101000a900473ffffffffffffffffffffffffffffffffffffffff169050816000806101000a81548173ffffffffffffffffffffffffffffffffffffffff021916908373ffffffffffffffffffffffffffffffffffffffff1602179055508173ffffffffffffffffffffffffffffffffffffffff168173ffffffffffffffffffffffffffffffffffffffff167f8be0079c531659141344cd1fd0a4f28419497f9722a3daafe3b4186f6b6457e060405160405180910390a35050565b60016040518060200160405280600067ffffffffffffffff8111156200013f576200013e62000268565b5b6040519080825280602002602001820160405280156200016e5781602001602082028036833780820191505090505b50815250908060018154018082558091505060019003906000526020600020016000909190919091506000820151816000019080519060200190620001b5929190620001ba565b505050565b82805482825590600052602060002090810192821562000236579160200282015b82811115620002355782518260006101000a81548173ffffffffffffffffffffffffffffffffffffffff021916908373ffffffffffffffffffffffffffffffffffffffff16021790555091602001919060010190620001db565b5b50905062000245919062000249565b5090565b5b80821115620002645760008160009055506001016200024a565b5090565b7f4e487b7100000000000000000000000000000000000000000000000000000000600052604160045260246000fd5b61120f80620002a76000396000f3fe608060405234801561001057600080fd5b50600436106100885760003560e01c80637f353d551161005b5780637f353d55146101155780638da5cb5b1461011f578063c4c1c94f1461013d578063f2fde38b1461015957610088565b806306661abd1461008d5780632a2d01f8146100ab57806335147092146100db578063715018a61461010b575b600080fd5b610095610175565b6040516100a29190610a76565b60405180910390f35b6100c560048036038101906100c09190610ac7565b61018d565b6040516100d29190610a76565b60405180910390f35b6100f560048036038101906100f09190610af4565b610222565b6040516101029190610b75565b60405180910390f35b610113610375565b005b61011d6103fd565b005b61012761052f565b6040516101349190610b75565b60405180910390f35b61015760048036038101906101529190610bf5565b610558565b005b610173600480360381019061016e9190610c6e565b610748565b005b6000600180805490506101889190610cca565b905090565b6000610197610175565b67ffffffffffffffff168267ffffffffffffffff16106101ec576040517f08c379a00000000000000000000000000000000000000000000000000000000081526004016101e390610d81565b60405180910390fd5b60018267ffffffffffffffff168154811061020a57610209610da1565b5b90600052602060002001600001805490509050919050565b600061022c610175565b67ffffffffffffffff168367ffffffffffffffff1610610281576040517f08c379a000000000000000000000000000000000000000000000000000000000815260040161027890610e1c565b60405180910390fd5b60018367ffffffffffffffff168154811061029f5761029e610da1565b5b90600052602060002001600001805490508267ffffffffffffffff16106102fb576040517f08c379a00000000000000000000000000000000000000000000000000000000081526004016102f290610e88565b60405180910390fd5b60018367ffffffffffffffff168154811061031957610318610da1565b5b906000526020600020016000018267ffffffffffffffff168154811061034257610341610da1565b5b9060005260206000200160009054906101000a900473ffffffffffffffffffffffffffffffffffffffff16905092915050565b61037d610840565b73ffffffffffffffffffffffffffffffffffffffff1661039b61052f565b73ffffffffffffffffffffffffffffffffffffffff16146103f1576040517f08c379a00000000000000000000000000000000000000000000000000000000081526004016103e890610ef4565b60405180910390fd5b6103fb6000610848565b565b610405610840565b73ffffffffffffffffffffffffffffffffffffffff1661042361052f565b73ffffffffffffffffffffffffffffffffffffffff1614610479576040517f08c379a000000000000000000000000000000000000000000000000000000000815260040161047090610ef4565b60405180910390fd5b600167ffffffffffffffff61048e9190610cca565b67ffffffffffffffff16600180549050106104de576040517f08c379a00000000000000000000000000000000000000000000000000000000081526004016104d590610f86565b60405180910390fd5b7f5ff9c98a1faf73c018d22371cb08c08dec1412825b68523a8e7deaa17683a6b9600180805490506105109190610cca565b60405161051d9190610a76565b60405180910390a161052d61090c565b565b60008060009054906101000a900473ffffffffffffffffffffffffffffffffffffffff16905090565b610560610840565b73ffffffffffffffffffffffffffffffffffffffff1661057e61052f565b73ffffffffffffffffffffffffffffffffffffffff16146105d4576040517f08c379a00000000000000000000000000000000000000000000000000000000081526004016105cb90610ef4565b60405180910390fd5b6000600180805490506105e79190610fb0565b9050600060018267ffffffffffffffff168154811061060957610608610da1565b5b9060005260206000200160000180549050905060005b848490508167ffffffffffffffff1610156107045760018367ffffffffffffffff168154811061065257610651610da1565b5b9060005260206000200160000185858367ffffffffffffffff1681811061067c5761067b610da1565b5b90506020020160208101906106919190610c6e565b9080600181540180825580915050600190039060005260206000200160009091909190916101000a81548173ffffffffffffffffffffffffffffffffffffffff021916908373ffffffffffffffffffffffffffffffffffffffff16021790555080806106fc90610fe4565b91505061061f565b507f54a93d30cc356a58fe6fe472b453c3ea842500e17a2e9972af429d866f305fbd8282868660405161073a94939291906110d8565b60405180910390a150505050565b610750610840565b73ffffffffffffffffffffffffffffffffffffffff1661076e61052f565b73ffffffffffffffffffffffffffffffffffffffff16146107c4576040517f08c379a00000000000000000000000000000000000000000000000000000000081526004016107bb90610ef4565b60405180910390fd5b600073ffffffffffffffffffffffffffffffffffffffff168173ffffffffffffffffffffffffffffffffffffffff161415610834576040517f08c379a000000000000000000000000000000000000000000000000000000000815260040161082b9061118a565b60405180910390fd5b61083d81610848565b50565b600033905090565b60008060009054906101000a900473ffffffffffffffffffffffffffffffffffffffff169050816000806101000a81548173ffffffffffffffffffffffffffffffffffffffff021916908373ffffffffffffffffffffffffffffffffffffffff1602179055508173ffffffffffffffffffffffffffffffffffffffff168173ffffffffffffffffffffffffffffffffffffffff167f8be0079c531659141344cd1fd0a4f28419497f9722a3daafe3b4186f6b6457e060405160405180910390a35050565b60016040518060200160405280600067ffffffffffffffff811115610934576109336111aa565b5b6040519080825280602002602001820160405280156109625781602001602082028036833780820191505090505b508152509080600181540180825580915050600190039060005260206000200160009091909190915060008201518160000190805190602001906109a79291906109ac565b505050565b828054828255906000526020600020908101928215610a25579160200282015b82811115610a245782518260006101000a81548173ffffffffffffffffffffffffffffffffffffffff021916908373ffffffffffffffffffffffffffffffffffffffff160217905550916020019190600101906109cc565b5b509050610a329190610a36565b5090565b5b80821115610a4f576000816000905550600101610a37565b5090565b600067ffffffffffffffff82169050919050565b610a7081610a53565b82525050565b6000602082019050610a8b6000830184610a67565b92915050565b600080fd5b600080fd5b610aa481610a53565b8114610aaf57600080fd5b50565b600081359050610ac181610a9b565b92915050565b600060208284031215610add57610adc610a91565b5b6000610aeb84828501610ab2565b91505092915050565b60008060408385031215610b0b57610b0a610a91565b5b6000610b1985828601610ab2565b9250506020610b2a85828601610ab2565b9150509250929050565b600073ffffffffffffffffffffffffffffffffffffffff82169050919050565b6000610b5f82610b34565b9050919050565b610b6f81610b54565b82525050565b6000602082019050610b8a6000830184610b66565b92915050565b600080fd5b600080fd5b600080fd5b60008083601f840112610bb557610bb4610b90565b5b8235905067ffffffffffffffff811115610bd257610bd1610b95565b5b602083019150836020820283011115610bee57610bed610b9a565b5b9250929050565b60008060208385031215610c0c57610c0b610a91565b5b600083013567ffffffffffffffff811115610c2a57610c29610a96565b5b610c3685828601610b9f565b92509250509250929050565b610c4b81610b54565b8114610c5657600080fd5b50565b600081359050610c6881610c42565b92915050565b600060208284031215610c8457610c83610a91565b5b6000610c9284828501610c59565b91505092915050565b7f4e487b7100000000000000000000000000000000000000000000000000000000600052601160045260246000fd5b6000610cd582610a53565b9150610ce083610a53565b925082821015610cf357610cf2610c9b565b5b828203905092915050565b600082825260208201905092915050565b7f41646472735365712e636f756e744e74683a206e206f7574206f662072616e6760008201527f6500000000000000000000000000000000000000000000000000000000000000602082015250565b6000610d6b602183610cfe565b9150610d7682610d0f565b604082019050919050565b60006020820190508181036000830152610d9a81610d5e565b9050919050565b7f4e487b7100000000000000000000000000000000000000000000000000000000600052603260045260246000fd5b7f41646472735365712e61743a206e206f7574206f662072616e67650000000000600082015250565b6000610e06601b83610cfe565b9150610e1182610dd0565b602082019050919050565b60006020820190508181036000830152610e3581610df9565b9050919050565b7f41646472735365712e61743a2069206f7574206f662072616e67650000000000600082015250565b6000610e72601b83610cfe565b9150610e7d82610e3c565b602082019050919050565b60006020820190508181036000830152610ea181610e65565b9050919050565b7f4f776e61626c653a2063616c6c6572206973206e6f7420746865206f776e6572600082015250565b6000610ede602083610cfe565b9150610ee982610ea8565b602082019050919050565b60006020820190508181036000830152610f0d81610ed1565b9050919050565b7f41646472735365712e617070656e643a20736571206578636565656473206c6960008201527f6d69740000000000000000000000000000000000000000000000000000000000602082015250565b6000610f70602383610cfe565b9150610f7b82610f14565b604082019050919050565b60006020820190508181036000830152610f9f81610f63565b9050919050565b6000819050919050565b6000610fbb82610fa6565b9150610fc683610fa6565b925082821015610fd957610fd8610c9b565b5b828203905092915050565b6000610fef82610a53565b915067ffffffffffffffff82141561100a57611009610c9b565b5b600182019050919050565b600082825260208201905092915050565b6000819050919050565b61103981610b54565b82525050565b600061104b8383611030565b60208301905092915050565b60006110666020840184610c59565b905092915050565b6000602082019050919050565b60006110878385611015565b935061109282611026565b8060005b858110156110cb576110a88284611057565b6110b2888261103f565b97506110bd8361106e565b925050600181019050611096565b5085925050509392505050565b60006060820190506110ed6000830187610a67565b6110fa6020830186610a67565b818103604083015261110d81848661107b565b905095945050505050565b7f4f776e61626c653a206e6577206f776e657220697320746865207a65726f206160008201527f6464726573730000000000000000000000000000000000000000000000000000602082015250565b6000611174602683610cfe565b915061117f82611118565b604082019050919050565b600060208201905081810360008301526111a381611167565b9050919050565b7f4e487b7100000000000000000000000000000000000000000000000000000000600052604160045260246000fdfea2646970667358221220790b6db29353f7c550912a97b164c0c539dabbf2e9428facc51a2895e5361e2d64736f6c63430008090033",
  "linkReferences": {},
  "deployedLinkReferences": {}
}