{
  "_format": "hh-sol-artifact-1",
  "contractName": "BatchCounter",
  "sourceName": "src/BatchCounter.sol",
  "abi": [
    {
      "inputs": [],
      "name": "CallerNotZeroAddress",
      "type": "error"
    },
    {
      "anonymous": false,
      "inputs": [
        {
          "indexed": false,
          "internalType": "uint64",
          "name": "oldIndex",
          "type": "uint64"
        },
        {
          "indexed": false,
          "internalType": "uint64",
          "name": "newIndex",
          "type": "uint64"
        }
      ],
      "name": "NewBatchIndex",
      "type": "event"
    },
    {
      "inputs": [],
      "name": "batchIndex",
      "outputs": [
        {
          "internalType": "uint64",
          "name": "",
          "type": "uint64"
        }
      ],
      "stateMutability": "view",
      "type": "function"
    },
    {
      "inputs": [],
      "name": "increment",
      "outputs": [],
      "stateMutability": "nonpayable",
      "type": "function"
    },
    {
      "inputs": [
        {
          "internalType": "uint64",
          "name": "newBatchIndex",
          "type": "uint64"
        }
      ],
      "name": "set",
      "outputs": [],
      "stateMutability": "nonpayable",
      "type": "function"
    }
  ],
  "bytecode": "0x608060405234801561001057600080fd5b50610408806100206000396000f3fe608060405234801561001057600080fd5b50600436106100415760003560e01c80631d8c311f14610046578063d09de08a14610062578063e79993f31461006c575b600080fd5b610060600480360381019061005b91906102e5565b61008a565b005b61006a610168565b005b610074610288565b6040516100819190610321565b60405180910390f35b600073ffffffffffffffffffffffffffffffffffffffff163373ffffffffffffffffffffffffffffffffffffffff16146100f0576040517f1448d0ef00000000000000000000000000000000000000000000000000000000815260040160405180910390fd5b7f5867f9e83f14fb505a43dd58880b1de7e3b5cddbfa99bb92a15dad48b453410b60008054906101000a900467ffffffffffffffff168260405161013592919061033c565b60405180910390a1806000806101000a81548167ffffffffffffffff021916908367ffffffffffffffff16021790555050565b600073ffffffffffffffffffffffffffffffffffffffff163373ffffffffffffffffffffffffffffffffffffffff16146101ce576040517f1448d0ef00000000000000000000000000000000000000000000000000000000815260040160405180910390fd5b7f5867f9e83f14fb505a43dd58880b1de7e3b5cddbfa99bb92a15dad48b453410b60008054906101000a900467ffffffffffffffff16600160008054906101000a900467ffffffffffffffff166102259190610394565b60405161023392919061033c565b60405180910390a160016000808282829054906101000a900467ffffffffffffffff166102609190610394565b92506101000a81548167ffffffffffffffff021916908367ffffffffffffffff160217905550565b60008054906101000a900467ffffffffffffffff1681565b600080fd5b600067ffffffffffffffff82169050919050565b6102c2816102a5565b81146102cd57600080fd5b50565b6000813590506102df816102b9565b92915050565b6000602082840312156102fb576102fa6102a0565b5b6000610309848285016102d0565b91505092915050565b61031b816102a5565b82525050565b60006020820190506103366000830184610312565b92915050565b60006040820190506103516000830185610312565b61035e6020830184610312565b9392505050565b7f4e487b7100000000000000000000000000000000000000000000000000000000600052601160045260246000fd5b600061039f826102a5565b91506103aa836102a5565b92508267ffffffffffffffff038211156103c7576103c6610365565b5b82820190509291505056fea264697066735822122068c601cd0c24bf82ab94fbd11d2e0f91998753f7a133dcf71bb7af46c407a09164736f6c63430008090033",
  "linkReferences": {},
  "deployedLinkReferences": {}
}