{
  "_format": "hh-sol-artifact-1",
  "contractName": "CollatorConfigsList",
  "sourceName": "src/CollatorConfigsList.sol",
  "abi": [
    {
      "inputs": [
        {
          "internalType": "contract AddrsSeq",
          "name": "_addrsSeq",
          "type": "address"
        }
      ],
      "stateMutability": "nonpayable",
      "type": "constructor"
    },
    {
      "anonymous": false,
      "inputs": [
        {
          "indexed": false,
          "internalType": "uint64",
          "name": "activationBlockNumber",
          "type": "uint64"
        },
        {
          "indexed": false,
          "internalType": "uint64",
          "name": "collatorSetIndex",
          "type": "uint64"
        },
        {
          "indexed": false,
          "internalType": "uint64",
          "name": "collatorConfigIndex",
          "type": "uint64"
        }
      ],
      "name": "NewConfig",
      "type": "event"
    },
    {
      "anonymous": false,
      "inputs": [
        {
          "indexed": true,
          "internalType": "address",
          "name": "previousOwner",
          "type": "address"
        },
        {
          "indexed": true,
          "internalType": "address",
          "name": "newOwner",
          "type": "address"
        }
      ],
      "name": "OwnershipTransferred",
      "type": "event"
    },
    {
      "inputs": [
        {
          "components": [
            {
              "internalType": "uint64",
              "name": "activationBlockNumber",
              "type": "uint64"
            },
            {
              "internalType": "uint64",
              "name": "setIndex",
              "type": "uint64"
            }
          ],
          "internalType": "struct CollatorConfig",
          "name": "config",
          "type": "tuple"
        }
      ],
      "name": "addNewCfg",
      "outputs": [],
      "stateMutability": "nonpayable",
      "type": "function"
    },
    {
      "inputs": [],
      "name": "addrsSeq",
      "outputs": [
        {
          "internalType": "contract AddrsSeq",
          "name": "",
          "type": "address"
        }
      ],
      "stateMutability": "view",
      "type": "function"
    },
    {
      "inputs": [
        {
          "internalType": "uint256",
          "name": "",
          "type": "uint256"
        }
      ],
      "name": "collatorConfigs",
      "outputs": [
        {
          "internalType": "uint64",
          "name": "activationBlockNumber",
          "type": "uint64"
        },
        {
          "internalType": "uint64",
          "name": "setIndex",
          "type": "uint64"
        }
      ],
      "stateMutability": "view",
      "type": "function"
    },
    {
      "inputs": [
        {
          "internalType": "uint64",
          "name": "activationBlockNumber",
          "type": "uint64"
        }
      ],
      "name": "getActiveConfig",
      "outputs": [
        {
          "components": [
            {
              "internalType": "uint64",
              "name": "activationBlockNumber",
              "type": "uint64"
            },
            {
              "internalType": "uint64",
              "name": "setIndex",
              "type": "uint64"
            }
          ],
          "internalType": "struct CollatorConfig",
          "name": "",
          "type": "tuple"
        }
      ],
      "stateMutability": "view",
      "type": "function"
    },
    {
      "inputs": [],
      "name": "getCurrentActiveConfig",
      "outputs": [
        {
          "components": [
            {
              "internalType": "uint64",
              "name": "activationBlockNumber",
              "type": "uint64"
            },
            {
              "internalType": "uint64",
              "name": "setIndex",
              "type": "uint64"
            }
          ],
          "internalType": "struct CollatorConfig",
          "name": "",
          "type": "tuple"
        }
      ],
      "stateMutability": "view",
      "type": "function"
    },
    {
      "inputs": [],
      "name": "owner",
      "outputs": [
        {
          "internalType": "address",
          "name": "",
          "type": "address"
        }
      ],
      "stateMutability": "view",
      "type": "function"
    },
    {
      "inputs": [],
      "name": "renounceOwnership",
      "outputs": [],
      "stateMutability": "nonpayable",
      "type": "function"
    },
    {
      "inputs": [
        {
          "internalType": "address",
          "name": "newOwner",
          "type": "address"
        }
      ],
      "name": "transferOwnership",
      "outputs": [],
      "stateMutability": "nonpayable",
      "type": "function"
    }
  ],
  "bytecode": "0x60806040523480156200001157600080fd5b5060405162001842380380620018428339818101604052810190620000379190620003db565b620000576200004b6200029160201b60201c565b6200029960201b60201c565b80600260006101000a81548173ffffffffffffffffffffffffffffffffffffffff021916908373ffffffffffffffffffffffffffffffffffffffff1602179055506000600260009054906101000a900473ffffffffffffffffffffffffffffffffffffffff1673ffffffffffffffffffffffffffffffffffffffff16632a2d01f860006040518263ffffffff1660e01b8152600401620000f891906200046e565b60206040518083038186803b1580156200011157600080fd5b505afa15801562000126573d6000803e3d6000fd5b505050506040513d601f19601f820116820180604052508101906200014c9190620004bc565b67ffffffffffffffff161462000199576040517f08c379a0000000000000000000000000000000000000000000000000000000008152600401620001909062000575565b60405180910390fd5b60016040518060400160405280600067ffffffffffffffff168152602001600067ffffffffffffffff168152509080600181540180825580915050600190039060005260206000200160009091909190915060008201518160000160006101000a81548167ffffffffffffffff021916908367ffffffffffffffff16021790555060208201518160000160086101000a81548167ffffffffffffffff021916908367ffffffffffffffff16021790555050507ff1c5613227525376c83485d5a7995987dcfcd90512b0de33df550d2469fba9d96000806000604051620002829392919062000597565b60405180910390a150620005d4565b600033905090565b60008060009054906101000a900473ffffffffffffffffffffffffffffffffffffffff169050816000806101000a81548173ffffffffffffffffffffffffffffffffffffffff021916908373ffffffffffffffffffffffffffffffffffffffff1602179055508173ffffffffffffffffffffffffffffffffffffffff168173ffffffffffffffffffffffffffffffffffffffff167f8be0079c531659141344cd1fd0a4f28419497f9722a3daafe3b4186f6b6457e060405160405180910390a35050565b600080fd5b600073ffffffffffffffffffffffffffffffffffffffff82169050919050565b60006200038f8262000362565b9050919050565b6000620003a38262000382565b9050919050565b620003b58162000396565b8114620003c157600080fd5b50565b600081519050620003d581620003aa565b92915050565b600060208284031215620003f457620003f36200035d565b5b60006200040484828501620003c4565b91505092915050565b6000819050919050565b600067ffffffffffffffff82169050919050565b6000819050919050565b600062000456620004506200044a846200040d565b6200042b565b62000417565b9050919050565b620004688162000435565b82525050565b60006020820190506200048560008301846200045d565b92915050565b620004968162000417565b8114620004a257600080fd5b50565b600081519050620004b6816200048b565b92915050565b600060208284031215620004d557620004d46200035d565b5b6000620004e584828501620004a5565b91505092915050565b600082825260208201905092915050565b7f4164647273536571206d757374206861766520656d707479206c69737420617460008201527f20696e6465782030000000000000000000000000000000000000000000000000602082015250565b60006200055d602883620004ee565b91506200056a82620004ff565b604082019050919050565b6000602082019050818103600083015262000590816200054e565b9050919050565b6000606082019050620005ae60008301866200045d565b620005bd60208301856200045d565b620005cc60408301846200045d565b949350505050565b61125e80620005e46000396000f3fe608060405234801561001057600080fd5b50600436106100885760003560e01c80638da5cb5b1161005b5780638da5cb5b14610102578063b5351b0d14610120578063f2fde38b14610150578063f9c72b531461016c57610088565b80634d89eaaf1461008d578063715018a6146100ab57806377e18fc4146100b557806379f78099146100e6575b600080fd5b61009561018a565b6040516100a291906109d5565b60405180910390f35b6100b36101b0565b005b6100cf60048036038101906100ca9190610a2b565b610238565b6040516100dd929190610a7b565b60405180910390f35b61010060048036038101906100fb9190610ac8565b610290565b005b61010a6105c7565b6040516101179190610b16565b60405180910390f35b61013a60048036038101906101359190610b5d565b6105f0565b6040516101479190610bc8565b60405180910390f35b61016a60048036038101906101659190610c0f565b61074e565b005b610174610846565b6040516101819190610bc8565b60405180910390f35b600260009054906101000a900473ffffffffffffffffffffffffffffffffffffffff1681565b6101b861085c565b73ffffffffffffffffffffffffffffffffffffffff166101d66105c7565b73ffffffffffffffffffffffffffffffffffffffff161461022c576040517f08c379a000000000000000000000000000000000000000000000000000000000815260040161022390610c99565b60405180910390fd5b6102366000610864565b565b6001818154811061024857600080fd5b906000526020600020016000915090508060000160009054906101000a900467ffffffffffffffff16908060000160089054906101000a900467ffffffffffffffff16905082565b61029861085c565b73ffffffffffffffffffffffffffffffffffffffff166102b66105c7565b73ffffffffffffffffffffffffffffffffffffffff161461030c576040517f08c379a000000000000000000000000000000000000000000000000000000000815260040161030390610c99565b60405180910390fd5b80602001602081019061031f9190610b5d565b67ffffffffffffffff16600260009054906101000a900473ffffffffffffffffffffffffffffffffffffffff1673ffffffffffffffffffffffffffffffffffffffff166306661abd6040518163ffffffff1660e01b815260040160206040518083038186803b15801561039157600080fd5b505afa1580156103a5573d6000803e3d6000fd5b505050506040513d601f19601f820116820180604052508101906103c99190610cce565b67ffffffffffffffff1611610413576040517f08c379a000000000000000000000000000000000000000000000000000000000815260040161040a90610d6d565b60405180910390fd5b8060000160208101906104269190610b5d565b67ffffffffffffffff1660018080805490506104429190610dbc565b8154811061045357610452610df0565b5b9060005260206000200160000160009054906101000a900467ffffffffffffffff1667ffffffffffffffff1611156104c0576040517f08c379a00000000000000000000000000000000000000000000000000000000081526004016104b790610e91565b60405180910390fd5b8060000160208101906104d39190610b5d565b67ffffffffffffffff1643111561051f576040517f08c379a000000000000000000000000000000000000000000000000000000000815260040161051690610f23565b60405180910390fd5b6001819080600181540180825580915050600190039060005260206000200160009091909190915081816105539190611087565b50507ff1c5613227525376c83485d5a7995987dcfcd90512b0de33df550d2469fba9d98160000160208101906105899190610b5d565b82602001602081019061059c9190610b5d565b600180805490506105ad9190611095565b6040516105bc939291906110c9565b60405180910390a150565b60008060009054906101000a900473ffffffffffffffffffffffffffffffffffffffff16905090565b6105f8610928565b60006001808054905061060b9190610dbc565b90505b60011561070d578267ffffffffffffffff166001828154811061063457610633610df0565b5b9060005260206000200160000160009054906101000a900467ffffffffffffffff1667ffffffffffffffff16116106fa576001818154811061067957610678610df0565b5b906000526020600020016040518060400160405290816000820160009054906101000a900467ffffffffffffffff1667ffffffffffffffff1667ffffffffffffffff1681526020016000820160089054906101000a900467ffffffffffffffff1667ffffffffffffffff1667ffffffffffffffff1681525050915050610749565b808061070590611100565b91505061060e565b506040517f08c379a000000000000000000000000000000000000000000000000000000000815260040161074090611176565b60405180910390fd5b919050565b61075661085c565b73ffffffffffffffffffffffffffffffffffffffff166107746105c7565b73ffffffffffffffffffffffffffffffffffffffff16146107ca576040517f08c379a00000000000000000000000000000000000000000000000000000000081526004016107c190610c99565b60405180910390fd5b600073ffffffffffffffffffffffffffffffffffffffff168173ffffffffffffffffffffffffffffffffffffffff16141561083a576040517f08c379a000000000000000000000000000000000000000000000000000000000815260040161083190611208565b60405180910390fd5b61084381610864565b50565b61084e610928565b610857436105f0565b905090565b600033905090565b60008060009054906101000a900473ffffffffffffffffffffffffffffffffffffffff169050816000806101000a81548173ffffffffffffffffffffffffffffffffffffffff021916908373ffffffffffffffffffffffffffffffffffffffff1602179055508173ffffffffffffffffffffffffffffffffffffffff168173ffffffffffffffffffffffffffffffffffffffff167f8be0079c531659141344cd1fd0a4f28419497f9722a3daafe3b4186f6b6457e060405160405180910390a35050565b6040518060400160405280600067ffffffffffffffff168152602001600067ffffffffffffffff1681525090565b600073ffffffffffffffffffffffffffffffffffffffff82169050919050565b6000819050919050565b600061099b61099661099184610956565b610976565b610956565b9050919050565b60006109ad82610980565b9050919050565b60006109bf826109a2565b9050919050565b6109cf816109b4565b82525050565b60006020820190506109ea60008301846109c6565b92915050565b600080fd5b6000819050919050565b610a08816109f5565b8114610a1357600080fd5b50565b600081359050610a25816109ff565b92915050565b600060208284031215610a4157610a406109f0565b5b6000610a4f84828501610a16565b91505092915050565b600067ffffffffffffffff82169050919050565b610a7581610a58565b82525050565b6000604082019050610a906000830185610a6c565b610a9d6020830184610a6c565b9392505050565b600080fd5b600060408284031215610abf57610abe610aa4565b5b81905092915050565b600060408284031215610ade57610add6109f0565b5b6000610aec84828501610aa9565b91505092915050565b6000610b0082610956565b9050919050565b610b1081610af5565b82525050565b6000602082019050610b2b6000830184610b07565b92915050565b610b3a81610a58565b8114610b4557600080fd5b50565b600081359050610b5781610b31565b92915050565b600060208284031215610b7357610b726109f0565b5b6000610b8184828501610b48565b91505092915050565b610b9381610a58565b82525050565b604082016000820151610baf6000850182610b8a565b506020820151610bc26020850182610b8a565b50505050565b6000604082019050610bdd6000830184610b99565b92915050565b610bec81610af5565b8114610bf757600080fd5b50565b600081359050610c0981610be3565b92915050565b600060208284031215610c2557610c246109f0565b5b6000610c3384828501610bfa565b91505092915050565b600082825260208201905092915050565b7f4f776e61626c653a2063616c6c6572206973206e6f7420746865206f776e6572600082015250565b6000610c83602083610c3c565b9150610c8e82610c4d565b602082019050919050565b60006020820190508181036000830152610cb281610c76565b9050919050565b600081519050610cc881610b31565b92915050565b600060208284031215610ce457610ce36109f0565b5b6000610cf284828501610cb9565b91505092915050565b7f4e6f20617070656e6465642073657420696e2073657120636f72726573706f6e60008201527f64696e6720746f20636f6e66696727732073657420696e646578000000000000602082015250565b6000610d57603a83610c3c565b9150610d6282610cfb565b604082019050919050565b60006020820190508181036000830152610d8681610d4a565b9050919050565b7f4e487b7100000000000000000000000000000000000000000000000000000000600052601160045260246000fd5b6000610dc7826109f5565b9150610dd2836109f5565b925082821015610de557610de4610d8d565b5b828203905092915050565b7f4e487b7100000000000000000000000000000000000000000000000000000000600052603260045260246000fd5b7f43616e6e6f7420616464206e6577207365742077697468206c6f77657220626c60008201527f6f636b206e756d626572207468616e2070726576696f75730000000000000000602082015250565b6000610e7b603883610c3c565b9150610e8682610e1f565b604082019050919050565b60006020820190508181036000830152610eaa81610e6e565b9050919050565b7f43616e6e6f7420616464206e6577207365742077697468207061737420626c6f60008201527f636b206e756d6265720000000000000000000000000000000000000000000000602082015250565b6000610f0d602983610c3c565b9150610f1882610eb1565b604082019050919050565b60006020820190508181036000830152610f3c81610f00565b9050919050565b60008135610f5081610b31565b80915050919050565b60008160001b9050919050565b600067ffffffffffffffff610f7a84610f59565b9350801983169250808416831791505092915050565b6000610fab610fa6610fa184610a58565b610976565b610a58565b9050919050565b6000819050919050565b610fc582610f90565b610fd8610fd182610fb2565b8354610f66565b8255505050565b60008160401b9050919050565b60006fffffffffffffffff000000000000000061100884610fdf565b9350801983169250808416831791505092915050565b61102782610f90565b61103a61103382610fb2565b8354610fec565b8255505050565b60008101600083018061105381610f43565b905061105f8184610fbc565b50505060008101602083018061107481610f43565b9050611080818461101e565b5050505050565b6110918282611041565b5050565b60006110a082610a58565b91506110ab83610a58565b9250828210156110be576110bd610d8d565b5b828203905092915050565b60006060820190506110de6000830186610a6c565b6110eb6020830185610a6c565b6110f86040830184610a6c565b949350505050565b600061110b826109f5565b9150600082141561111f5761111e610d8d565b5b600182039050919050565b7f756e726561636861626c65000000000000000000000000000000000000000000600082015250565b6000611160600b83610c3c565b915061116b8261112a565b602082019050919050565b6000602082019050818103600083015261118f81611153565b9050919050565b7f4f776e61626c653a206e6577206f776e657220697320746865207a65726f206160008201527f6464726573730000000000000000000000000000000000000000000000000000602082015250565b60006111f2602683610c3c565b91506111fd82611196565b604082019050919050565b60006020820190508181036000830152611221816111e5565b905091905056fea26469706673582212200b8eec56b5465e80a4a4ad3030da304e1531857f66eb1b8c7a339185faa7e20364736f6c63430008090033",
  "linkReferences": {},
  "deployedLinkReferences": {}
}