{
  "_format": "hh-sol-artifact-1",
  "contractName": "EonKeyStorage",
  "sourceName": "src/EonKeyBroadcast.sol",
  "abi": [
    {
      "inputs": [],
      "stateMutability": "nonpayable",
      "type": "constructor"
    },
    {
      "inputs": [
        {
          "internalType": "uint64",
          "name": "blockNumber",
          "type": "uint64"
        }
      ],
      "name": "NotFound",
      "type": "error"
    },
    {
      "anonymous": false,
      "inputs": [
        {
          "indexed": false,
          "internalType": "uint64",
          "name": "activationBlockNumber",
          "type": "uint64"
        },
        {
          "indexed": false,
          "internalType": "uint64",
          "name": "index",
          "type": "uint64"
        },
        {
          "indexed": false,
          "internalType": "bytes",
          "name": "key",
          "type": "bytes"
        }
      ],
      "name": "Inserted",
      "type": "event"
    },
    {
      "anonymous": false,
      "inputs": [
        {
          "indexed": true,
          "internalType": "address",
          "name": "previousOwner",
          "type": "address"
        },
        {
          "indexed": true,
          "internalType": "address",
          "name": "newOwner",
          "type": "address"
        }
      ],
      "name": "OwnershipTransferred",
      "type": "event"
    },
    {
      "inputs": [
        {
          "internalType": "uint64",
          "name": "blockNumber",
          "type": "uint64"
        }
      ],
      "name": "get",
      "outputs": [
        {
          "internalType": "bytes",
          "name": "",
          "type": "bytes"
        }
      ],
      "stateMutability": "view",
      "type": "function"
    },
    {
      "inputs": [
        {
          "internalType": "bytes",
          "name": "serializedKey",
          "type": "bytes"
        },
        {
          "internalType": "uint64",
          "name": "activationBlockNumber",
          "type": "uint64"
        }
      ],
      "name": "insert",
      "outputs": [],
      "stateMutability": "nonpayable",
      "type": "function"
    },
    {
      "inputs": [
        {
          "internalType": "uint256",
          "name": "",
          "type": "uint256"
        }
      ],
      "name": "keys",
      "outputs": [
        {
          "internalType": "uint64",
          "name": "activationBlockNumber",
          "type": "uint64"
        },
        {
          "internalType": "uint64",
          "name": "nextIndex",
          "type": "uint64"
        },
        {
          "internalType": "bytes",
          "name": "key",
          "type": "bytes"
        }
      ],
      "stateMutability": "view",
      "type": "function"
    },
    {
      "inputs": [],
      "name": "num",
      "outputs": [
        {
          "internalType": "uint64",
          "name": "",
          "type": "uint64"
        }
      ],
      "stateMutability": "view",
      "type": "function"
    },
    {
      "inputs": [],
      "name": "owner",
      "outputs": [
        {
          "internalType": "address",
          "name": "",
          "type": "address"
        }
      ],
      "stateMutability": "view",
      "type": "function"
    },
    {
      "inputs": [],
      "name": "renounceOwnership",
      "outputs": [],
      "stateMutability": "nonpayable",
      "type": "function"
    },
    {
      "inputs": [
        {
          "internalType": "address",
          "name": "newOwner",
          "type": "address"
        }
      ],
      "name": "transferOwnership",
      "outputs": [],
      "stateMutability": "nonpayable",
      "type": "function"
    }
  ],
  "bytecode": "0x60806040523480156200001157600080fd5b5062000032620000266200006e60201b60201c565b6200007660201b60201c565b60606200004960008260016200013a60201b60201c565b506200006667ffffffffffffffff8260006200013a60201b60201c565b50506200049c565b600033905090565b60008060009054906101000a900473ffffffffffffffffffffffffffffffffffffffff169050816000806101000a81548173ffffffffffffffffffffffffffffffffffffffff021916908373ffffffffffffffffffffffffffffffffffffffff1602179055508173ffffffffffffffffffffffffffffffffffffffff168173ffffffffffffffffffffffffffffffffffffffff167f8be0079c531659141344cd1fd0a4f28419497f9722a3daafe3b4186f6b6457e060405160405180910390a35050565b6000806001805490509050600160405180606001604052808767ffffffffffffffff1681526020018567ffffffffffffffff16815260200186815250908060018154018082558091505060019003906000526020600020906002020160009091909190915060008201518160000160006101000a81548167ffffffffffffffff021916908367ffffffffffffffff16021790555060208201518160000160086101000a81548167ffffffffffffffff021916908367ffffffffffffffff16021790555060408201518160010190805190602001906200021b9291906200027a565b50505060028167ffffffffffffffff16106200026f577f2f64d9497c8c677c995d99bcc930463dca07bfc5906e28140cbfa4222ddf402c8582866040516200026693929190620003f3565b60405180910390a15b809150509392505050565b828054620002889062000466565b90600052602060002090601f016020900481019282620002ac5760008555620002f8565b82601f10620002c757805160ff1916838001178555620002f8565b82800160010185558215620002f8579182015b82811115620002f7578251825591602001919060010190620002da565b5b5090506200030791906200030b565b5090565b5b80821115620003265760008160009055506001016200030c565b5090565b600067ffffffffffffffff82169050919050565b62000349816200032a565b82525050565b600081519050919050565b600082825260208201905092915050565b60005b838110156200038b5780820151818401526020810190506200036e565b838111156200039b576000848401525b50505050565b6000601f19601f8301169050919050565b6000620003bf826200034f565b620003cb81856200035a565b9350620003dd8185602086016200036b565b620003e881620003a1565b840191505092915050565b60006060820190506200040a60008301866200033e565b6200041960208301856200033e565b81810360408301526200042d8184620003b2565b9050949350505050565b7f4e487b7100000000000000000000000000000000000000000000000000000000600052602260045260246000fd5b600060028204905060018216806200047f57607f821691505b6020821081141562000496576200049562000437565b5b50919050565b61134a80620004ac6000396000f3fe608060405234801561001057600080fd5b506004361061007d5760003560e01c8063715018a61161005b578063715018a6146100ee5780638da5cb5b146100f8578063ada8679814610116578063f2fde38b146101465761007d565b80630cb6aaf1146100825780633f5fafa4146100b45780634e70b1dc146100d0575b600080fd5b61009c60048036038101906100979190610d0f565b610162565b6040516100ab93929190610df8565b60405180910390f35b6100ce60048036038101906100c99190610f97565b61024c565b005b6100d8610659565b6040516100e59190610ff3565b60405180910390f35b6100f6610672565b005b6101006106fa565b60405161010d919061104f565b60405180910390f35b610130600480360381019061012b919061106a565b610723565b60405161013d9190611097565b60405180910390f35b610160600480360381019061015b91906110e5565b610923565b005b6001818154811061017257600080fd5b90600052602060002090600202016000915090508060000160009054906101000a900467ffffffffffffffff16908060000160089054906101000a900467ffffffffffffffff16908060010180546101c990611141565b80601f01602080910402602001604051908101604052809291908181526020018280546101f590611141565b80156102425780601f1061021757610100808354040283529160200191610242565b820191906000526020600020905b81548152906001019060200180831161022557829003601f168201915b5050505050905083565b610254610a1b565b73ffffffffffffffffffffffffffffffffffffffff166102726106fa565b73ffffffffffffffffffffffffffffffffffffffff16146102c8576040517f08c379a00000000000000000000000000000000000000000000000000000000081526004016102bf906111d0565b60405180910390fd5b60008060019050600060018267ffffffffffffffff16815481106102ef576102ee6111f0565b5b90600052602060002090600202016040518060600160405290816000820160009054906101000a900467ffffffffffffffff1667ffffffffffffffff1667ffffffffffffffff1681526020016000820160089054906101000a900467ffffffffffffffff1667ffffffffffffffff1667ffffffffffffffff16815260200160018201805461037c90611141565b80601f01602080910402602001604051908101604052809291908181526020018280546103a890611141565b80156103f55780601f106103ca576101008083540402835291602001916103f5565b820191906000526020600020905b8154815290600101906020018083116103d857829003601f168201915b50505050508152505090505b6001156106515760006001826020015167ffffffffffffffff168154811061042c5761042b6111f0565b5b90600052602060002090600202016040518060600160405290816000820160009054906101000a900467ffffffffffffffff1667ffffffffffffffff1667ffffffffffffffff1681526020016000820160089054906101000a900467ffffffffffffffff1667ffffffffffffffff1667ffffffffffffffff1681526020016001820180546104b990611141565b80601f01602080910402602001604051908101604052809291908181526020018280546104e590611141565b80156105325780601f1061050757610100808354040283529160200191610532565b820191906000526020600020905b81548152906001019060200180831161051557829003601f168201915b50505050508152505090508467ffffffffffffffff16816000015167ffffffffffffffff16116106415761056b85878460200151610a23565b935083826020019067ffffffffffffffff16908167ffffffffffffffff16815250508160018467ffffffffffffffff16815481106105ac576105ab6111f0565b5b906000526020600020906002020160008201518160000160006101000a81548167ffffffffffffffff021916908367ffffffffffffffff16021790555060208201518160000160086101000a81548167ffffffffffffffff021916908367ffffffffffffffff1602179055506040820151816001019080519060200190610634929190610c22565b5090505050505050610655565b8160200151925080915050610401565b5050505b5050565b6000600260018054905061066d919061124e565b905090565b61067a610a1b565b73ffffffffffffffffffffffffffffffffffffffff166106986106fa565b73ffffffffffffffffffffffffffffffffffffffff16146106ee576040517f08c379a00000000000000000000000000000000000000000000000000000000081526004016106e5906111d0565b60405180910390fd5b6106f86000610b5e565b565b60008060009054906101000a900473ffffffffffffffffffffffffffffffffffffffff16905090565b606060006001808154811061073b5761073a6111f0565b5b906000526020600020906002020160000160089054906101000a900467ffffffffffffffff1690505b60008167ffffffffffffffff16146108e157600060018267ffffffffffffffff1681548110610796576107956111f0565b5b90600052602060002090600202016040518060600160405290816000820160009054906101000a900467ffffffffffffffff1667ffffffffffffffff1667ffffffffffffffff1681526020016000820160089054906101000a900467ffffffffffffffff1667ffffffffffffffff1667ffffffffffffffff16815260200160018201805461082390611141565b80601f016020809104026020016040519081016040528092919081815260200182805461084f90611141565b801561089c5780601f106108715761010080835404028352916020019161089c565b820191906000526020600020905b81548152906001019060200180831161087f57829003601f168201915b50505050508152505090508367ffffffffffffffff16816000015167ffffffffffffffff16116108d45780604001519250505061091e565b8060200151915050610764565b826040517f6be0ee870000000000000000000000000000000000000000000000000000000081526004016109159190610ff3565b60405180910390fd5b919050565b61092b610a1b565b73ffffffffffffffffffffffffffffffffffffffff166109496106fa565b73ffffffffffffffffffffffffffffffffffffffff161461099f576040517f08c379a0000000000000000000000000000000000000000000000000000000008152600401610996906111d0565b60405180910390fd5b600073ffffffffffffffffffffffffffffffffffffffff168173ffffffffffffffffffffffffffffffffffffffff161415610a0f576040517f08c379a0000000000000000000000000000000000000000000000000000000008152600401610a06906112f4565b60405180910390fd5b610a1881610b5e565b50565b600033905090565b6000806001805490509050600160405180606001604052808767ffffffffffffffff1681526020018567ffffffffffffffff16815260200186815250908060018154018082558091505060019003906000526020600020906002020160009091909190915060008201518160000160006101000a81548167ffffffffffffffff021916908367ffffffffffffffff16021790555060208201518160000160086101000a81548167ffffffffffffffff021916908367ffffffffffffffff1602179055506040820151816001019080519060200190610b02929190610c22565b50505060028167ffffffffffffffff1610610b53577f2f64d9497c8c677c995d99bcc930463dca07bfc5906e28140cbfa4222ddf402c858286604051610b4a93929190610df8565b60405180910390a15b809150509392505050565b60008060009054906101000a900473ffffffffffffffffffffffffffffffffffffffff169050816000806101000a81548173ffffffffffffffffffffffffffffffffffffffff021916908373ffffffffffffffffffffffffffffffffffffffff1602179055508173ffffffffffffffffffffffffffffffffffffffff168173ffffffffffffffffffffffffffffffffffffffff167f8be0079c531659141344cd1fd0a4f28419497f9722a3daafe3b4186f6b6457e060405160405180910390a35050565b828054610c2e90611141565b90600052602060002090601f016020900481019282610c505760008555610c97565b82601f10610c6957805160ff1916838001178555610c97565b82800160010185558215610c97579182015b82811115610c96578251825591602001919060010190610c7b565b5b509050610ca49190610ca8565b5090565b5b80821115610cc1576000816000905550600101610ca9565b5090565b6000604051905090565b600080fd5b600080fd5b6000819050919050565b610cec81610cd9565b8114610cf757600080fd5b50565b600081359050610d0981610ce3565b92915050565b600060208284031215610d2557610d24610ccf565b5b6000610d3384828501610cfa565b91505092915050565b600067ffffffffffffffff82169050919050565b610d5981610d3c565b82525050565b600081519050919050565b600082825260208201905092915050565b60005b83811015610d99578082015181840152602081019050610d7e565b83811115610da8576000848401525b50505050565b6000601f19601f8301169050919050565b6000610dca82610d5f565b610dd48185610d6a565b9350610de4818560208601610d7b565b610ded81610dae565b840191505092915050565b6000606082019050610e0d6000830186610d50565b610e1a6020830185610d50565b8181036040830152610e2c8184610dbf565b9050949350505050565b600080fd5b600080fd5b7f4e487b7100000000000000000000000000000000000000000000000000000000600052604160045260246000fd5b610e7882610dae565b810181811067ffffffffffffffff82111715610e9757610e96610e40565b5b80604052505050565b6000610eaa610cc5565b9050610eb68282610e6f565b919050565b600067ffffffffffffffff821115610ed657610ed5610e40565b5b610edf82610dae565b9050602081019050919050565b82818337600083830152505050565b6000610f0e610f0984610ebb565b610ea0565b905082815260208101848484011115610f2a57610f29610e3b565b5b610f35848285610eec565b509392505050565b600082601f830112610f5257610f51610e36565b5b8135610f62848260208601610efb565b91505092915050565b610f7481610d3c565b8114610f7f57600080fd5b50565b600081359050610f9181610f6b565b92915050565b60008060408385031215610fae57610fad610ccf565b5b600083013567ffffffffffffffff811115610fcc57610fcb610cd4565b5b610fd885828601610f3d565b9250506020610fe985828601610f82565b9150509250929050565b60006020820190506110086000830184610d50565b92915050565b600073ffffffffffffffffffffffffffffffffffffffff82169050919050565b60006110398261100e565b9050919050565b6110498161102e565b82525050565b60006020820190506110646000830184611040565b92915050565b6000602082840312156110805761107f610ccf565b5b600061108e84828501610f82565b91505092915050565b600060208201905081810360008301526110b18184610dbf565b905092915050565b6110c28161102e565b81146110cd57600080fd5b50565b6000813590506110df816110b9565b92915050565b6000602082840312156110fb576110fa610ccf565b5b6000611109848285016110d0565b91505092915050565b7f4e487b7100000000000000000000000000000000000000000000000000000000600052602260045260246000fd5b6000600282049050600182168061115957607f821691505b6020821081141561116d5761116c611112565b5b50919050565b600082825260208201905092915050565b7f4f776e61626c653a2063616c6c6572206973206e6f7420746865206f776e6572600082015250565b60006111ba602083611173565b91506111c582611184565b602082019050919050565b600060208201905081810360008301526111e9816111ad565b9050919050565b7f4e487b7100000000000000000000000000000000000000000000000000000000600052603260045260246000fd5b7f4e487b7100000000000000000000000000000000000000000000000000000000600052601160045260246000fd5b600061125982610d3c565b915061126483610d3c565b9250828210156112775761127661121f565b5b828203905092915050565b7f4f776e61626c653a206e6577206f776e657220697320746865207a65726f206160008201527f6464726573730000000000000000000000000000000000000000000000000000602082015250565b60006112de602683611173565b91506112e982611282565b604082019050919050565b6000602082019050818103600083015261130d816112d1565b905091905056fea2646970667358221220153b334187937fffa1eda6feb5f37e42dc40ee15049e45f8c3c15828ff07666764736f6c63430008090033",
  "linkReferences": {},
  "deployedLinkReferences": {}
}